{
  "_format": "hh-sol-artifact-1",
  "contractName": "Pins2NFT",
  "sourceName": "contracts/Pins2NFT.sol",
  "abi": [
    {
      "inputs": [],
      "stateMutability": "nonpayable",
      "type": "constructor"
    },
    {
      "anonymous": false,
      "inputs": [
        {
          "indexed": false,
          "internalType": "address",
          "name": "previousAdmin",
          "type": "address"
        },
        {
          "indexed": false,
          "internalType": "address",
          "name": "newAdmin",
          "type": "address"
        }
      ],
      "name": "AdminChanged",
      "type": "event"
    },
    {
      "anonymous": false,
      "inputs": [
        {
          "indexed": true,
          "internalType": "address",
          "name": "owner",
          "type": "address"
        },
        {
          "indexed": true,
          "internalType": "address",
          "name": "approved",
          "type": "address"
        },
        {
          "indexed": true,
          "internalType": "uint256",
          "name": "tokenId",
          "type": "uint256"
        }
      ],
      "name": "Approval",
      "type": "event"
    },
    {
      "anonymous": false,
      "inputs": [
        {
          "indexed": true,
          "internalType": "address",
          "name": "owner",
          "type": "address"
        },
        {
          "indexed": true,
          "internalType": "address",
          "name": "operator",
          "type": "address"
        },
        {
          "indexed": false,
          "internalType": "bool",
          "name": "approved",
          "type": "bool"
        }
      ],
      "name": "ApprovalForAll",
      "type": "event"
    },
    {
      "anonymous": false,
      "inputs": [
        {
          "indexed": true,
          "internalType": "address",
          "name": "beacon",
          "type": "address"
        }
      ],
      "name": "BeaconUpgraded",
      "type": "event"
    },
    {
      "anonymous": false,
      "inputs": [
        {
          "indexed": false,
          "internalType": "address",
          "name": "account",
          "type": "address"
        }
      ],
      "name": "Paused",
      "type": "event"
    },
    {
      "anonymous": false,
      "inputs": [
        {
          "indexed": true,
          "internalType": "bytes32",
          "name": "role",
          "type": "bytes32"
        },
        {
          "indexed": true,
          "internalType": "bytes32",
          "name": "previousAdminRole",
          "type": "bytes32"
        },
        {
          "indexed": true,
          "internalType": "bytes32",
          "name": "newAdminRole",
          "type": "bytes32"
        }
      ],
      "name": "RoleAdminChanged",
      "type": "event"
    },
    {
      "anonymous": false,
      "inputs": [
        {
          "indexed": true,
          "internalType": "bytes32",
          "name": "role",
          "type": "bytes32"
        },
        {
          "indexed": true,
          "internalType": "address",
          "name": "account",
          "type": "address"
        },
        {
          "indexed": true,
          "internalType": "address",
          "name": "sender",
          "type": "address"
        }
      ],
      "name": "RoleGranted",
      "type": "event"
    },
    {
      "anonymous": false,
      "inputs": [
        {
          "indexed": true,
          "internalType": "bytes32",
          "name": "role",
          "type": "bytes32"
        },
        {
          "indexed": true,
          "internalType": "address",
          "name": "account",
          "type": "address"
        },
        {
          "indexed": true,
          "internalType": "address",
          "name": "sender",
          "type": "address"
        }
      ],
      "name": "RoleRevoked",
      "type": "event"
    },
    {
      "anonymous": false,
      "inputs": [
        {
          "indexed": true,
          "internalType": "address",
          "name": "from",
          "type": "address"
        },
        {
          "indexed": true,
          "internalType": "address",
          "name": "to",
          "type": "address"
        },
        {
          "indexed": true,
          "internalType": "uint256",
          "name": "tokenId",
          "type": "uint256"
        }
      ],
      "name": "Transfer",
      "type": "event"
    },
    {
      "anonymous": false,
      "inputs": [
        {
          "indexed": false,
          "internalType": "address",
          "name": "account",
          "type": "address"
        }
      ],
      "name": "Unpaused",
      "type": "event"
    },
    {
      "anonymous": false,
      "inputs": [
        {
          "indexed": true,
          "internalType": "address",
          "name": "implementation",
          "type": "address"
        }
      ],
      "name": "Upgraded",
      "type": "event"
    },
    {
      "inputs": [],
      "name": "DEFAULT_ADMIN_ROLE",
      "outputs": [
        {
          "internalType": "bytes32",
          "name": "",
          "type": "bytes32"
        }
      ],
      "stateMutability": "view",
      "type": "function"
    },
    {
      "inputs": [],
      "name": "MINTER_ROLE",
      "outputs": [
        {
          "internalType": "bytes32",
          "name": "",
          "type": "bytes32"
        }
      ],
      "stateMutability": "view",
      "type": "function"
    },
    {
      "inputs": [],
      "name": "PAUSER_ROLE",
      "outputs": [
        {
          "internalType": "bytes32",
          "name": "",
          "type": "bytes32"
        }
      ],
      "stateMutability": "view",
      "type": "function"
    },
    {
      "inputs": [],
      "name": "UPGRADER_ROLE",
      "outputs": [
        {
          "internalType": "bytes32",
          "name": "",
          "type": "bytes32"
        }
      ],
      "stateMutability": "view",
      "type": "function"
    },
    {
      "inputs": [
        {
          "internalType": "address",
          "name": "to",
          "type": "address"
        },
        {
          "internalType": "uint256",
          "name": "tokenId",
          "type": "uint256"
        }
      ],
      "name": "approve",
      "outputs": [],
      "stateMutability": "nonpayable",
      "type": "function"
    },
    {
      "inputs": [
        {
          "internalType": "address",
          "name": "owner",
          "type": "address"
        }
      ],
      "name": "balanceOf",
      "outputs": [
        {
          "internalType": "uint256",
          "name": "",
          "type": "uint256"
        }
      ],
      "stateMutability": "view",
      "type": "function"
    },
    {
      "inputs": [
        {
          "internalType": "uint256",
          "name": "tokenId",
          "type": "uint256"
        }
      ],
      "name": "burn",
      "outputs": [],
      "stateMutability": "nonpayable",
      "type": "function"
    },
    {
      "inputs": [
        {
          "internalType": "address",
          "name": "to",
          "type": "address"
        },
        {
          "internalType": "string",
          "name": "uri",
          "type": "string"
        }
      ],
      "name": "freeMint",
      "outputs": [],
      "stateMutability": "nonpayable",
      "type": "function"
    },
    {
      "inputs": [
        {
          "internalType": "uint256",
          "name": "tokenId",
          "type": "uint256"
        }
      ],
      "name": "getApproved",
      "outputs": [
        {
          "internalType": "address",
          "name": "",
          "type": "address"
        }
      ],
      "stateMutability": "view",
      "type": "function"
    },
    {
      "inputs": [
        {
          "internalType": "bytes32",
          "name": "role",
          "type": "bytes32"
        }
      ],
      "name": "getRoleAdmin",
      "outputs": [
        {
          "internalType": "bytes32",
          "name": "",
          "type": "bytes32"
        }
      ],
      "stateMutability": "view",
      "type": "function"
    },
    {
      "inputs": [
        {
          "internalType": "bytes32",
          "name": "role",
          "type": "bytes32"
        },
        {
          "internalType": "address",
          "name": "account",
          "type": "address"
        }
      ],
      "name": "grantRole",
      "outputs": [],
      "stateMutability": "nonpayable",
      "type": "function"
    },
    {
      "inputs": [
        {
          "internalType": "bytes32",
          "name": "role",
          "type": "bytes32"
        },
        {
          "internalType": "address",
          "name": "account",
          "type": "address"
        }
      ],
      "name": "hasRole",
      "outputs": [
        {
          "internalType": "bool",
          "name": "",
          "type": "bool"
        }
      ],
      "stateMutability": "view",
      "type": "function"
    },
    {
      "inputs": [],
      "name": "initialize",
      "outputs": [],
      "stateMutability": "nonpayable",
      "type": "function"
    },
    {
      "inputs": [
        {
          "internalType": "address",
          "name": "owner",
          "type": "address"
        },
        {
          "internalType": "address",
          "name": "operator",
          "type": "address"
        }
      ],
      "name": "isApprovedForAll",
      "outputs": [
        {
          "internalType": "bool",
          "name": "",
          "type": "bool"
        }
      ],
      "stateMutability": "view",
      "type": "function"
    },
    {
      "inputs": [],
      "name": "name",
      "outputs": [
        {
          "internalType": "string",
          "name": "",
          "type": "string"
        }
      ],
      "stateMutability": "view",
      "type": "function"
    },
    {
      "inputs": [
        {
          "internalType": "uint256",
          "name": "tokenId",
          "type": "uint256"
        }
      ],
      "name": "ownerOf",
      "outputs": [
        {
          "internalType": "address",
          "name": "",
          "type": "address"
        }
      ],
      "stateMutability": "view",
      "type": "function"
    },
    {
      "inputs": [],
      "name": "pause",
      "outputs": [],
      "stateMutability": "nonpayable",
      "type": "function"
    },
    {
      "inputs": [],
      "name": "paused",
      "outputs": [
        {
          "internalType": "bool",
          "name": "",
          "type": "bool"
        }
      ],
      "stateMutability": "view",
      "type": "function"
    },
    {
      "inputs": [
        {
          "internalType": "bytes32",
          "name": "role",
          "type": "bytes32"
        },
        {
          "internalType": "address",
          "name": "account",
          "type": "address"
        }
      ],
      "name": "renounceRole",
      "outputs": [],
      "stateMutability": "nonpayable",
      "type": "function"
    },
    {
      "inputs": [
        {
          "internalType": "bytes32",
          "name": "role",
          "type": "bytes32"
        },
        {
          "internalType": "address",
          "name": "account",
          "type": "address"
        }
      ],
      "name": "revokeRole",
      "outputs": [],
      "stateMutability": "nonpayable",
      "type": "function"
    },
    {
      "inputs": [
        {
          "internalType": "address",
          "name": "to",
          "type": "address"
        },
        {
          "internalType": "string",
          "name": "uri",
          "type": "string"
        }
      ],
      "name": "safeMint",
      "outputs": [],
      "stateMutability": "nonpayable",
      "type": "function"
    },
    {
      "inputs": [
        {
          "internalType": "address",
          "name": "from",
          "type": "address"
        },
        {
          "internalType": "address",
          "name": "to",
          "type": "address"
        },
        {
          "internalType": "uint256",
          "name": "tokenId",
          "type": "uint256"
        }
      ],
      "name": "safeTransferFrom",
      "outputs": [],
      "stateMutability": "nonpayable",
      "type": "function"
    },
    {
      "inputs": [
        {
          "internalType": "address",
          "name": "from",
          "type": "address"
        },
        {
          "internalType": "address",
          "name": "to",
          "type": "address"
        },
        {
          "internalType": "uint256",
          "name": "tokenId",
          "type": "uint256"
        },
        {
          "internalType": "bytes",
          "name": "_data",
          "type": "bytes"
        }
      ],
      "name": "safeTransferFrom",
      "outputs": [],
      "stateMutability": "nonpayable",
      "type": "function"
    },
    {
      "inputs": [
        {
          "internalType": "address",
          "name": "operator",
          "type": "address"
        },
        {
          "internalType": "bool",
          "name": "approved",
          "type": "bool"
        }
      ],
      "name": "setApprovalForAll",
      "outputs": [],
      "stateMutability": "nonpayable",
      "type": "function"
    },
    {
      "inputs": [
        {
          "internalType": "bytes4",
          "name": "interfaceId",
          "type": "bytes4"
        }
      ],
      "name": "supportsInterface",
      "outputs": [
        {
          "internalType": "bool",
          "name": "",
          "type": "bool"
        }
      ],
      "stateMutability": "view",
      "type": "function"
    },
    {
      "inputs": [],
      "name": "symbol",
      "outputs": [
        {
          "internalType": "string",
          "name": "",
          "type": "string"
        }
      ],
      "stateMutability": "view",
      "type": "function"
    },
    {
      "inputs": [
        {
          "internalType": "uint256",
          "name": "index",
          "type": "uint256"
        }
      ],
      "name": "tokenByIndex",
      "outputs": [
        {
          "internalType": "uint256",
          "name": "",
          "type": "uint256"
        }
      ],
      "stateMutability": "view",
      "type": "function"
    },
    {
      "inputs": [
        {
          "internalType": "address",
          "name": "owner",
          "type": "address"
        },
        {
          "internalType": "uint256",
          "name": "index",
          "type": "uint256"
        }
      ],
      "name": "tokenOfOwnerByIndex",
      "outputs": [
        {
          "internalType": "uint256",
          "name": "",
          "type": "uint256"
        }
      ],
      "stateMutability": "view",
      "type": "function"
    },
    {
      "inputs": [
        {
          "internalType": "uint256",
          "name": "tokenId",
          "type": "uint256"
        }
      ],
      "name": "tokenURI",
      "outputs": [
        {
          "internalType": "string",
          "name": "",
          "type": "string"
        }
      ],
      "stateMutability": "view",
      "type": "function"
    },
    {
      "inputs": [],
      "name": "totalSupply",
      "outputs": [
        {
          "internalType": "uint256",
          "name": "",
          "type": "uint256"
        }
      ],
      "stateMutability": "view",
      "type": "function"
    },
    {
      "inputs": [
        {
          "internalType": "address",
          "name": "from",
          "type": "address"
        },
        {
          "internalType": "address",
          "name": "to",
          "type": "address"
        },
        {
          "internalType": "uint256",
          "name": "tokenId",
          "type": "uint256"
        }
      ],
      "name": "transferFrom",
      "outputs": [],
      "stateMutability": "nonpayable",
      "type": "function"
    },
    {
      "inputs": [],
      "name": "unpause",
      "outputs": [],
      "stateMutability": "nonpayable",
      "type": "function"
    },
    {
      "inputs": [
        {
          "internalType": "address",
          "name": "newImplementation",
          "type": "address"
        }
      ],
      "name": "upgradeTo",
      "outputs": [],
      "stateMutability": "nonpayable",
      "type": "function"
    },
    {
      "inputs": [
        {
          "internalType": "address",
          "name": "newImplementation",
          "type": "address"
        },
        {
          "internalType": "bytes",
          "name": "data",
          "type": "bytes"
        }
      ],
      "name": "upgradeToAndCall",
      "outputs": [],
      "stateMutability": "payable",
      "type": "function"
    }
  ],
  "bytecode": "0x60a06040523073ffffffffffffffffffffffffffffffffffffffff1660809073ffffffffffffffffffffffffffffffffffffffff1660601b8152503480156200004757600080fd5b50600060019054906101000a900460ff16620000725760008054906101000a900460ff161562000083565b620000826200013f60201b60201c565b5b620000c5576040517f08c379a0000000000000000000000000000000000000000000000000000000008152600401620000bc9062000197565b60405180910390fd5b60008060019054906101000a900460ff16159050801562000116576001600060016101000a81548160ff02191690831515021790555060016000806101000a81548160ff0219169083151502179055505b8015620001385760008060016101000a81548160ff0219169083151502179055505b5062000219565b600062000157306200015d60201b620017831760201c565b15905090565b600080823b905060008111915050919050565b60006200017f602e83620001b9565b91506200018c82620001ca565b604082019050919050565b60006020820190508181036000830152620001b28162000170565b9050919050565b600082825260208201905092915050565b7f496e697469616c697a61626c653a20636f6e747261637420697320616c72656160008201527f647920696e697469616c697a6564000000000000000000000000000000000000602082015250565b60805160601c615e2e6200024d60003960008181610c2701528181610cb601528181610e8f0152610f1e0152615e2e6000f3fe6080604052600436106101f95760003560e01c80636352211e1161010d578063a22cb465116100a0578063d53913931161006f578063d53913931461071e578063d547741f14610749578063e63ab1e914610772578063e985e9c51461079d578063f72c0d8b146107da576101f9565b8063a22cb46514610666578063b88d4fde1461068f578063c87b56dd146106b8578063d204c45e146106f5576101f9565b80638456cb59116100dc5780638456cb59146105bc57806391d14854146105d357806395d89b4114610610578063a217fddf1461063b576101f9565b80636352211e1461050257806370a082311461053f578063711112be1461057c5780638129fc1c146105a5576101f9565b80632f745c591161019057806342842e0e1161015f57806342842e0e1461042c57806342966c68146104555780634f1ef2861461047e5780634f6ccce71461049a5780635c975abb146104d7576101f9565b80632f745c591461038657806336568abe146103c35780633659cfe6146103ec5780633f4ba83a14610415576101f9565b806318160ddd116101cc57806318160ddd146102cc57806323b872dd146102f7578063248a9ca3146103205780632f2ff15d1461035d576101f9565b806301ffc9a7146101fe57806306fdde031461023b578063081812fc14610266578063095ea7b3146102a3575b600080fd5b34801561020a57600080fd5b5061022560048036038101906102209190614536565b610805565b6040516102329190614bfd565b60405180910390f35b34801561024757600080fd5b50610250610817565b60405161025d9190614c33565b60405180910390f35b34801561027257600080fd5b5061028d60048036038101906102889190614588565b6108a9565b60405161029a9190614b96565b60405180910390f35b3480156102af57600080fd5b506102ca60048036038101906102c59190614495565b61092e565b005b3480156102d857600080fd5b506102e1610a46565b6040516102ee9190615015565b60405180910390f35b34801561030357600080fd5b5061031e600480360381019061031991906142e7565b610a53565b005b34801561032c57600080fd5b50610347600480360381019061034291906144d1565b610ab3565b6040516103549190614c18565b60405180910390f35b34801561036957600080fd5b50610384600480360381019061037f91906144fa565b610ad4565b005b34801561039257600080fd5b506103ad60048036038101906103a89190614495565b610afd565b6040516103ba9190615015565b60405180910390f35b3480156103cf57600080fd5b506103ea60048036038101906103e591906144fa565b610ba2565b005b3480156103f857600080fd5b50610413600480360381019061040e9190614282565b610c25565b005b34801561042157600080fd5b5061042a610dd4565b005b34801561043857600080fd5b50610453600480360381019061044e91906142e7565b610e11565b005b34801561046157600080fd5b5061047c60048036038101906104779190614588565b610e31565b005b610498600480360381019061049391906143ed565b610e8d565b005b3480156104a657600080fd5b506104c160048036038101906104bc9190614588565b610fca565b6040516104ce9190615015565b60405180910390f35b3480156104e357600080fd5b506104ec611061565b6040516104f99190614bfd565b60405180910390f35b34801561050e57600080fd5b5061052960048036038101906105249190614588565b611078565b6040516105369190614b96565b60405180910390f35b34801561054b57600080fd5b5061056660048036038101906105619190614282565b61112a565b6040516105739190615015565b60405180910390f35b34801561058857600080fd5b506105a3600480360381019061059e9190614441565b6111e2565b005b3480156105b157600080fd5b506105ba611215565b005b3480156105c857600080fd5b506105d1611428565b005b3480156105df57600080fd5b506105fa60048036038101906105f591906144fa565b611465565b6040516106079190614bfd565b60405180910390f35b34801561061c57600080fd5b506106256114d1565b6040516106329190614c33565b60405180910390f35b34801561064757600080fd5b50610650611563565b60405161065d9190614c18565b60405180910390f35b34801561067257600080fd5b5061068d600480360381019061068891906143b1565b61156a565b005b34801561069b57600080fd5b506106b660048036038101906106b19190614336565b611580565b005b3480156106c457600080fd5b506106df60048036038101906106da9190614588565b6115e2565b6040516106ec9190614c33565b60405180910390f35b34801561070157600080fd5b5061071c60048036038101906107179190614441565b6115f4565b005b34801561072a57600080fd5b5061073361165a565b6040516107409190614c18565b60405180910390f35b34801561075557600080fd5b50610770600480360381019061076b91906144fa565b61167e565b005b34801561077e57600080fd5b506107876116a7565b6040516107949190614c18565b60405180910390f35b3480156107a957600080fd5b506107c460048036038101906107bf91906142ab565b6116cb565b6040516107d19190614bfd565b60405180910390f35b3480156107e657600080fd5b506107ef61175f565b6040516107fc9190614c18565b60405180910390f35b600061081082611796565b9050919050565b60606065805461082690615304565b80601f016020809104026020016040519081016040528092919081815260200182805461085290615304565b801561089f5780601f106108745761010080835404028352916020019161089f565b820191906000526020600020905b81548152906001019060200180831161088257829003601f168201915b5050505050905090565b60006108b482611810565b6108f3576040517f08c379a00000000000000000000000000000000000000000000000000000000081526004016108ea90614eb5565b60405180910390fd5b6069600083815260200190815260200160002060009054906101000a900473ffffffffffffffffffffffffffffffffffffffff169050919050565b600061093982611078565b90508073ffffffffffffffffffffffffffffffffffffffff168373ffffffffffffffffffffffffffffffffffffffff1614156109aa576040517f08c379a00000000000000000000000000000000000000000000000000000000081526004016109a190614f35565b60405180910390fd5b8073ffffffffffffffffffffffffffffffffffffffff166109c961187c565b73ffffffffffffffffffffffffffffffffffffffff1614806109f857506109f7816109f261187c565b6116cb565b5b610a37576040517f08c379a0000000000000000000000000000000000000000000000000000000008152600401610a2e90614dd5565b60405180910390fd5b610a418383611884565b505050565b6000609980549050905090565b610a64610a5e61187c565b8261193d565b610aa3576040517f08c379a0000000000000000000000000000000000000000000000000000000008152600401610a9a90614f75565b60405180910390fd5b610aae838383611a1b565b505050565b600061012d6000838152602001908152602001600020600101549050919050565b610add82610ab3565b610aee81610ae961187c565b611c77565b610af88383611d14565b505050565b6000610b088361112a565b8210610b49576040517f08c379a0000000000000000000000000000000000000000000000000000000008152600401610b4090614c95565b60405180910390fd5b609760008473ffffffffffffffffffffffffffffffffffffffff1673ffffffffffffffffffffffffffffffffffffffff168152602001908152602001600020600083815260200190815260200160002054905092915050565b610baa61187c565b73ffffffffffffffffffffffffffffffffffffffff168173ffffffffffffffffffffffffffffffffffffffff1614610c17576040517f08c379a0000000000000000000000000000000000000000000000000000000008152600401610c0e90614ff5565b60405180910390fd5b610c218282611df6565b5050565b7f000000000000000000000000000000000000000000000000000000000000000073ffffffffffffffffffffffffffffffffffffffff163073ffffffffffffffffffffffffffffffffffffffff161415610cb4576040517f08c379a0000000000000000000000000000000000000000000000000000000008152600401610cab90614d15565b60405180910390fd5b7f000000000000000000000000000000000000000000000000000000000000000073ffffffffffffffffffffffffffffffffffffffff16610cf3611ed9565b73ffffffffffffffffffffffffffffffffffffffff1614610d49576040517f08c379a0000000000000000000000000000000000000000000000000000000008152600401610d4090614d75565b60405180910390fd5b610d5281611f30565b610dd181600067ffffffffffffffff811115610d97577f4e487b7100000000000000000000000000000000000000000000000000000000600052604160045260246000fd5b6040519080825280601f01601f191660200182016040528015610dc95781602001600182028036833780820191505090505b506000611f66565b50565b7f65d7a28e3265b37a6474929f336521b332c1681b933f6cb9f3376673440d862a610e0681610e0161187c565b611c77565b610e0e612137565b50565b610e2c83838360405180602001604052806000815250611580565b505050565b610e42610e3c61187c565b8261193d565b610e81576040517f08c379a0000000000000000000000000000000000000000000000000000000008152600401610e7890614fd5565b60405180910390fd5b610e8a816121d9565b50565b7f000000000000000000000000000000000000000000000000000000000000000073ffffffffffffffffffffffffffffffffffffffff163073ffffffffffffffffffffffffffffffffffffffff161415610f1c576040517f08c379a0000000000000000000000000000000000000000000000000000000008152600401610f1390614d15565b60405180910390fd5b7f000000000000000000000000000000000000000000000000000000000000000073ffffffffffffffffffffffffffffffffffffffff16610f5b611ed9565b73ffffffffffffffffffffffffffffffffffffffff1614610fb1576040517f08c379a0000000000000000000000000000000000000000000000000000000008152600401610fa890614d75565b60405180910390fd5b610fba82611f30565b610fc682826001611f66565b5050565b6000610fd4610a46565b8210611015576040517f08c379a000000000000000000000000000000000000000000000000000000000815260040161100c90614f95565b60405180910390fd5b6099828154811061104f577f4e487b7100000000000000000000000000000000000000000000000000000000600052603260045260246000fd5b90600052602060002001549050919050565b600060fb60009054906101000a900460ff16905090565b6000806067600084815260200190815260200160002060009054906101000a900473ffffffffffffffffffffffffffffffffffffffff169050600073ffffffffffffffffffffffffffffffffffffffff168173ffffffffffffffffffffffffffffffffffffffff161415611121576040517f08c379a000000000000000000000000000000000000000000000000000000000815260040161111890614e15565b60405180910390fd5b80915050919050565b60008073ffffffffffffffffffffffffffffffffffffffff168273ffffffffffffffffffffffffffffffffffffffff16141561119b576040517f08c379a000000000000000000000000000000000000000000000000000000000815260040161119290614df5565b60405180910390fd5b606860008373ffffffffffffffffffffffffffffffffffffffff1673ffffffffffffffffffffffffffffffffffffffff168152602001908152602001600020549050919050565b60006111ef6101f56121e5565b90506111fc6101f56121f3565b6112068382612209565b6112108183612227565b505050565b600060019054906101000a900460ff1661123d5760008054906101000a900460ff1615611246565b61124561229b565b5b611285576040517f08c379a000000000000000000000000000000000000000000000000000000000815260040161127c90614e55565b60405180910390fd5b60008060019054906101000a900460ff1615905080156112d5576001600060016101000a81548160ff02191690831515021790555060016000806101000a81548160ff0219169083151502179055505b6113496040518060400160405280600881526020017f50696e73324e46540000000000000000000000000000000000000000000000008152506040518060400160405280600481526020017f50494e53000000000000000000000000000000000000000000000000000000008152506122ac565b611351612319565b611359612382565b6113616123eb565b61136961244c565b6113716124b5565b61137961251e565b6113866000801b33611d14565b6113b07f65d7a28e3265b37a6474929f336521b332c1681b933f6cb9f3376673440d862a33611d14565b6113da7f9f2df0fed2c77648de5860a4cc508cd0818c85b8b8a1ab4ceeef8d981c8956a633611d14565b6114047f189ab7a9244df0848122154315af71fe140f3db0fe014031783b0946b8c9d2e333611d14565b80156114255760008060016101000a81548160ff0219169083151502179055505b50565b7f65d7a28e3265b37a6474929f336521b332c1681b933f6cb9f3376673440d862a61145a8161145561187c565b611c77565b61146261257f565b50565b600061012d600084815260200190815260200160002060000160008373ffffffffffffffffffffffffffffffffffffffff1673ffffffffffffffffffffffffffffffffffffffff16815260200190815260200160002060009054906101000a900460ff16905092915050565b6060606680546114e090615304565b80601f016020809104026020016040519081016040528092919081815260200182805461150c90615304565b80156115595780601f1061152e57610100808354040283529160200191611559565b820191906000526020600020905b81548152906001019060200180831161153c57829003601f168201915b5050505050905090565b6000801b81565b61157c61157561187c565b8383612622565b5050565b61159161158b61187c565b8361193d565b6115d0576040517f08c379a00000000000000000000000000000000000000000000000000000000081526004016115c790614f75565b60405180910390fd5b6115dc8484848461278f565b50505050565b60606115ed826127eb565b9050919050565b7f9f2df0fed2c77648de5860a4cc508cd0818c85b8b8a1ab4ceeef8d981c8956a66116268161162161187c565b611c77565b60006116336101f56121e5565b90506116406101f56121f3565b61164a8482612209565b6116548184612227565b50505050565b7f9f2df0fed2c77648de5860a4cc508cd0818c85b8b8a1ab4ceeef8d981c8956a681565b61168782610ab3565b6116988161169361187c565b611c77565b6116a28383611df6565b505050565b7f65d7a28e3265b37a6474929f336521b332c1681b933f6cb9f3376673440d862a81565b6000606a60008473ffffffffffffffffffffffffffffffffffffffff1673ffffffffffffffffffffffffffffffffffffffff16815260200190815260200160002060008373ffffffffffffffffffffffffffffffffffffffff1673ffffffffffffffffffffffffffffffffffffffff16815260200190815260200160002060009054906101000a900460ff16905092915050565b7f189ab7a9244df0848122154315af71fe140f3db0fe014031783b0946b8c9d2e381565b600080823b905060008111915050919050565b60007f7965db0b000000000000000000000000000000000000000000000000000000007bffffffffffffffffffffffffffffffffffffffffffffffffffffffff1916827bffffffffffffffffffffffffffffffffffffffffffffffffffffffff1916148061180957506118088261293d565b5b9050919050565b60008073ffffffffffffffffffffffffffffffffffffffff166067600084815260200190815260200160002060009054906101000a900473ffffffffffffffffffffffffffffffffffffffff1673ffffffffffffffffffffffffffffffffffffffff1614159050919050565b600033905090565b816069600083815260200190815260200160002060006101000a81548173ffffffffffffffffffffffffffffffffffffffff021916908373ffffffffffffffffffffffffffffffffffffffff160217905550808273ffffffffffffffffffffffffffffffffffffffff166118f783611078565b73ffffffffffffffffffffffffffffffffffffffff167f8c5be1e5ebec7d5bd14f71427d1e84f3dd0314c0f7b2291e5b200ac8c7c3b92560405160405180910390a45050565b600061194882611810565b611987576040517f08c379a000000000000000000000000000000000000000000000000000000000815260040161197e90614d95565b60405180910390fd5b600061199283611078565b90508073ffffffffffffffffffffffffffffffffffffffff168473ffffffffffffffffffffffffffffffffffffffff161480611a0157508373ffffffffffffffffffffffffffffffffffffffff166119e9846108a9565b73ffffffffffffffffffffffffffffffffffffffff16145b80611a125750611a1181856116cb565b5b91505092915050565b8273ffffffffffffffffffffffffffffffffffffffff16611a3b82611078565b73ffffffffffffffffffffffffffffffffffffffff1614611a91576040517f08c379a0000000000000000000000000000000000000000000000000000000008152600401611a8890614ef5565b60405180910390fd5b600073ffffffffffffffffffffffffffffffffffffffff168273ffffffffffffffffffffffffffffffffffffffff161415611b01576040517f08c379a0000000000000000000000000000000000000000000000000000000008152600401611af890614d35565b60405180910390fd5b611b0c8383836129b7565b611b17600082611884565b6001606860008573ffffffffffffffffffffffffffffffffffffffff1673ffffffffffffffffffffffffffffffffffffffff1681526020019081526020016000206000828254611b6791906151e6565b925050819055506001606860008473ffffffffffffffffffffffffffffffffffffffff1673ffffffffffffffffffffffffffffffffffffffff1681526020019081526020016000206000828254611bbe9190615105565b92505081905550816067600083815260200190815260200160002060006101000a81548173ffffffffffffffffffffffffffffffffffffffff021916908373ffffffffffffffffffffffffffffffffffffffff160217905550808273ffffffffffffffffffffffffffffffffffffffff168473ffffffffffffffffffffffffffffffffffffffff167fddf252ad1be2c89b69c2b068fc378daa952ba7f163c4a11628f55a4df523b3ef60405160405180910390a4505050565b611c818282611465565b611d1057611ca68173ffffffffffffffffffffffffffffffffffffffff166014612a0f565b611cb48360001c6020612a0f565b604051602001611cc5929190614b5c565b6040516020818303038152906040526040517f08c379a0000000000000000000000000000000000000000000000000000000008152600401611d079190614c33565b60405180910390fd5b5050565b611d1e8282611465565b611df257600161012d600084815260200190815260200160002060000160008373ffffffffffffffffffffffffffffffffffffffff1673ffffffffffffffffffffffffffffffffffffffff16815260200190815260200160002060006101000a81548160ff021916908315150217905550611d9761187c565b73ffffffffffffffffffffffffffffffffffffffff168173ffffffffffffffffffffffffffffffffffffffff16837f2f8788117e7eff1d82e926ec794901d17c78024a50270940304540a733656f0d60405160405180910390a45b5050565b611e008282611465565b15611ed557600061012d600084815260200190815260200160002060000160008373ffffffffffffffffffffffffffffffffffffffff1673ffffffffffffffffffffffffffffffffffffffff16815260200190815260200160002060006101000a81548160ff021916908315150217905550611e7a61187c565b73ffffffffffffffffffffffffffffffffffffffff168173ffffffffffffffffffffffffffffffffffffffff16837ff6391f5c32d9c69d2a47ea670b442974b53935d1edc7fd64eb21e047a839171b60405160405180910390a45b5050565b6000611f077f360894a13ba1a3210667c828492db98dca3e2076cc3735a920a3ca505d382bbc60001b612d09565b60000160009054906101000a900473ffffffffffffffffffffffffffffffffffffffff16905090565b7f189ab7a9244df0848122154315af71fe140f3db0fe014031783b0946b8c9d2e3611f6281611f5d61187c565b611c77565b5050565b6000611f70611ed9565b9050611f7b84612d13565b600083511180611f885750815b15611f9957611f978484612dcc565b505b6000611fc77f4910fdfa16fed3260ed0e7147f7cc6da11a60208b5b9406d12a635614ffd914360001b612eb0565b90508060000160009054906101000a900460ff166121305760018160000160006101000a81548160ff02191690831515021790555061209385836040516024016120119190614b96565b6040516020818303038152906040527f3659cfe6000000000000000000000000000000000000000000000000000000007bffffffffffffffffffffffffffffffffffffffffffffffffffffffff19166020820180517bffffffffffffffffffffffffffffffffffffffffffffffffffffffff8381831617835250505050612dcc565b5060008160000160006101000a81548160ff0219169083151502179055506120b9611ed9565b73ffffffffffffffffffffffffffffffffffffffff168273ffffffffffffffffffffffffffffffffffffffff1614612126576040517f08c379a000000000000000000000000000000000000000000000000000000000815260040161211d90614cd5565b60405180910390fd5b61212f85612eba565b5b5050505050565b61213f611061565b61217e576040517f08c379a000000000000000000000000000000000000000000000000000000000815260040161217590614c75565b60405180910390fd5b600060fb60006101000a81548160ff0219169083151502179055507f5db9ee0a495bf2e6ff9c91a7834c1ba4fdd244a5e8aa4e537bd38aeae4b073aa6121c261187c565b6040516121cf9190614b96565b60405180910390a1565b6121e281612f09565b50565b600081600001549050919050565b6001816000016000828254019250508190555050565b612223828260405180602001604052806000815250612f5c565b5050565b61223082611810565b61226f576040517f08c379a000000000000000000000000000000000000000000000000000000000815260040161226690614e35565b60405180910390fd5b8060c960008481526020019081526020016000209080519060200190612296929190614051565b505050565b60006122a630611783565b15905090565b600060019054906101000a900460ff166122fb576040517f08c379a00000000000000000000000000000000000000000000000000000000081526004016122f290614fb5565b60405180910390fd5b612303612fb7565b61230b613008565b6123158282613059565b5050565b600060019054906101000a900460ff16612368576040517f08c379a000000000000000000000000000000000000000000000000000000000815260040161235f90614fb5565b60405180910390fd5b612370612fb7565b612378613008565b6123806130da565b565b600060019054906101000a900460ff166123d1576040517f08c379a00000000000000000000000000000000000000000000000000000000081526004016123c890614fb5565b60405180910390fd5b6123d9612fb7565b6123e1613008565b6123e961312b565b565b600060019054906101000a900460ff1661243a576040517f08c379a000000000000000000000000000000000000000000000000000000000815260040161243190614fb5565b60405180910390fd5b612442612fb7565b61244a61317c565b565b600060019054906101000a900460ff1661249b576040517f08c379a000000000000000000000000000000000000000000000000000000000815260040161249290614fb5565b60405180910390fd5b6124a3612fb7565b6124ab613008565b6124b36131e8565b565b600060019054906101000a900460ff16612504576040517f08c379a00000000000000000000000000000000000000000000000000000000081526004016124fb90614fb5565b60405180910390fd5b61250c612fb7565b612514613008565b61251c613239565b565b600060019054906101000a900460ff1661256d576040517f08c379a000000000000000000000000000000000000000000000000000000000815260040161256490614fb5565b60405180910390fd5b61257561328a565b61257d6132db565b565b612587611061565b156125c7576040517f08c379a00000000000000000000000000000000000000000000000000000000081526004016125be90614db5565b60405180910390fd5b600160fb60006101000a81548160ff0219169083151502179055507f62e78cea01bee320cd4e420270b5ea74000d11b0c9f74754ebdbfc544b05a25861260b61187c565b6040516126189190614b96565b60405180910390a1565b8173ffffffffffffffffffffffffffffffffffffffff168373ffffffffffffffffffffffffffffffffffffffff161415612691576040517f08c379a000000000000000000000000000000000000000000000000000000000815260040161268890614d55565b60405180910390fd5b80606a60008573ffffffffffffffffffffffffffffffffffffffff1673ffffffffffffffffffffffffffffffffffffffff16815260200190815260200160002060008473ffffffffffffffffffffffffffffffffffffffff1673ffffffffffffffffffffffffffffffffffffffff16815260200190815260200160002060006101000a81548160ff0219169083151502179055508173ffffffffffffffffffffffffffffffffffffffff168373ffffffffffffffffffffffffffffffffffffffff167f17307eab39ab6107e8899845ad3d59bd9653f200f220920489ca2b5937696c31836040516127829190614bfd565b60405180910390a3505050565b61279a848484611a1b565b6127a68484848461332c565b6127e5576040517f08c379a00000000000000000000000000000000000000000000000000000000081526004016127dc90614cb5565b60405180910390fd5b50505050565b60606127f682611810565b612835576040517f08c379a000000000000000000000000000000000000000000000000000000000815260040161282c90614e95565b60405180910390fd5b600060c96000848152602001908152602001600020805461285590615304565b80601f016020809104026020016040519081016040528092919081815260200182805461288190615304565b80156128ce5780601f106128a3576101008083540402835291602001916128ce565b820191906000526020600020905b8154815290600101906020018083116128b157829003601f168201915b5050505050905060006128df6134c3565b90506000815114156128f5578192505050612938565b60008251111561292a578082604051602001612912929190614b38565b60405160208183030381529060405292505050612938565b612933846134da565b925050505b919050565b60007f780e9d63000000000000000000000000000000000000000000000000000000007bffffffffffffffffffffffffffffffffffffffffffffffffffffffff1916827bffffffffffffffffffffffffffffffffffffffffffffffffffffffff191614806129b057506129af82613581565b5b9050919050565b6129bf611061565b156129ff576040517f08c379a00000000000000000000000000000000000000000000000000000000081526004016129f690614db5565b60405180910390fd5b612a0a838383613663565b505050565b606060006002836002612a22919061518c565b612a2c9190615105565b67ffffffffffffffff811115612a6b577f4e487b7100000000000000000000000000000000000000000000000000000000600052604160045260246000fd5b6040519080825280601f01601f191660200182016040528015612a9d5781602001600182028036833780820191505090505b5090507f300000000000000000000000000000000000000000000000000000000000000081600081518110612afb577f4e487b7100000000000000000000000000000000000000000000000000000000600052603260045260246000fd5b60200101907effffffffffffffffffffffffffffffffffffffffffffffffffffffffffffff1916908160001a9053507f780000000000000000000000000000000000000000000000000000000000000081600181518110612b85577f4e487b7100000000000000000000000000000000000000000000000000000000600052603260045260246000fd5b60200101907effffffffffffffffffffffffffffffffffffffffffffffffffffffffffffff1916908160001a90535060006001846002612bc5919061518c565b612bcf9190615105565b90505b6001811115612cbb577f3031323334353637383961626364656600000000000000000000000000000000600f861660108110612c37577f4e487b7100000000000000000000000000000000000000000000000000000000600052603260045260246000fd5b1a60f81b828281518110612c74577f4e487b7100000000000000000000000000000000000000000000000000000000600052603260045260246000fd5b60200101907effffffffffffffffffffffffffffffffffffffffffffffffffffffffffffff1916908160001a905350600485901c945080612cb4906152da565b9050612bd2565b5060008414612cff576040517f08c379a0000000000000000000000000000000000000000000000000000000008152600401612cf690614c55565b60405180910390fd5b8091505092915050565b6000819050919050565b612d1c81611783565b612d5b576040517f08c379a0000000000000000000000000000000000000000000000000000000008152600401612d5290614ed5565b60405180910390fd5b80612d887f360894a13ba1a3210667c828492db98dca3e2076cc3735a920a3ca505d382bbc60001b612d09565b60000160006101000a81548173ffffffffffffffffffffffffffffffffffffffff021916908373ffffffffffffffffffffffffffffffffffffffff16021790555050565b6060612dd783611783565b612e16576040517f08c379a0000000000000000000000000000000000000000000000000000000008152600401612e0d90614f55565b60405180910390fd5b6000808473ffffffffffffffffffffffffffffffffffffffff1684604051612e3e9190614b21565b600060405180830381855af49150503d8060008114612e79576040519150601f19603f3d011682016040523d82523d6000602084013e612e7e565b606091505b5091509150612ea68282604051806060016040528060278152602001615dd260279139613777565b9250505092915050565b6000819050919050565b612ec381612d13565b8073ffffffffffffffffffffffffffffffffffffffff167fbc7cd75a20ee27fd9adebab32041f755214dbc6bffa90cc0225b39da2e5c2d3b60405160405180910390a250565b612f12816137de565b600060c960008381526020019081526020016000208054612f3290615304565b905014612f595760c960008281526020019081526020016000206000612f5891906140d7565b5b50565b612f6683836138ef565b612f73600084848461332c565b612fb2576040517f08c379a0000000000000000000000000000000000000000000000000000000008152600401612fa990614cb5565b60405180910390fd5b505050565b600060019054906101000a900460ff16613006576040517f08c379a0000000000000000000000000000000000000000000000000000000008152600401612ffd90614fb5565b60405180910390fd5b565b600060019054906101000a900460ff16613057576040517f08c379a000000000000000000000000000000000000000000000000000000000815260040161304e90614fb5565b60405180910390fd5b565b600060019054906101000a900460ff166130a8576040517f08c379a000000000000000000000000000000000000000000000000000000000815260040161309f90614fb5565b60405180910390fd5b81606590805190602001906130be929190614051565b5080606690805190602001906130d5929190614051565b505050565b600060019054906101000a900460ff16613129576040517f08c379a000000000000000000000000000000000000000000000000000000000815260040161312090614fb5565b60405180910390fd5b565b600060019054906101000a900460ff1661317a576040517f08c379a000000000000000000000000000000000000000000000000000000000815260040161317190614fb5565b60405180910390fd5b565b600060019054906101000a900460ff166131cb576040517f08c379a00000000000000000000000000000000000000000000000000000000081526004016131c290614fb5565b60405180910390fd5b600060fb60006101000a81548160ff021916908315150217905550565b600060019054906101000a900460ff16613237576040517f08c379a000000000000000000000000000000000000000000000000000000000815260040161322e90614fb5565b60405180910390fd5b565b600060019054906101000a900460ff16613288576040517f08c379a000000000000000000000000000000000000000000000000000000000815260040161327f90614fb5565b60405180910390fd5b565b600060019054906101000a900460ff166132d9576040517f08c379a00000000000000000000000000000000000000000000000000000000081526004016132d090614fb5565b60405180910390fd5b565b600060019054906101000a900460ff1661332a576040517f08c379a000000000000000000000000000000000000000000000000000000000815260040161332190614fb5565b60405180910390fd5b565b600061334d8473ffffffffffffffffffffffffffffffffffffffff16611783565b156134b6578373ffffffffffffffffffffffffffffffffffffffff1663150b7a0261337661187c565b8786866040518563ffffffff1660e01b81526004016133989493929190614bb1565b602060405180830381600087803b1580156133b257600080fd5b505af19250505080156133e357506040513d601f19601f820116820180604052508101906133e0919061455f565b60015b613466573d8060008114613413576040519150601f19603f3d011682016040523d82523d6000602084013e613418565b606091505b5060008151141561345e576040517f08c379a000000000000000000000000000000000000000000000000000000000815260040161345590614cb5565b60405180910390fd5b805181602001fd5b63150b7a0260e01b7bffffffffffffffffffffffffffffffffffffffffffffffffffffffff1916817bffffffffffffffffffffffffffffffffffffffffffffffffffffffff1916149150506134bb565b600190505b949350505050565b606060405180602001604052806000815250905090565b60606134e582611810565b613524576040517f08c379a000000000000000000000000000000000000000000000000000000000815260040161351b90614f15565b60405180910390fd5b600061352e6134c3565b9050600081511161354e5760405180602001604052806000815250613579565b8061355884613abd565b604051602001613569929190614b38565b6040516020818303038152906040525b915050919050565b60007f80ac58cd000000000000000000000000000000000000000000000000000000007bffffffffffffffffffffffffffffffffffffffffffffffffffffffff1916827bffffffffffffffffffffffffffffffffffffffffffffffffffffffff1916148061364c57507f5b5e139f000000000000000000000000000000000000000000000000000000007bffffffffffffffffffffffffffffffffffffffffffffffffffffffff1916827bffffffffffffffffffffffffffffffffffffffffffffffffffffffff1916145b8061365c575061365b82613c6a565b5b9050919050565b61366e838383613cd4565b600073ffffffffffffffffffffffffffffffffffffffff168373ffffffffffffffffffffffffffffffffffffffff1614156136b1576136ac81613cd9565b6136f0565b8173ffffffffffffffffffffffffffffffffffffffff168373ffffffffffffffffffffffffffffffffffffffff16146136ef576136ee8382613d22565b5b5b600073ffffffffffffffffffffffffffffffffffffffff168273ffffffffffffffffffffffffffffffffffffffff1614156137335761372e81613e8f565b613772565b8273ffffffffffffffffffffffffffffffffffffffff168273ffffffffffffffffffffffffffffffffffffffff1614613771576137708282613fd2565b5b5b505050565b60608315613787578290506137d7565b60008351111561379a5782518084602001fd5b816040517f08c379a00000000000000000000000000000000000000000000000000000000081526004016137ce9190614c33565b60405180910390fd5b9392505050565b60006137e982611078565b90506137f7816000846129b7565b613802600083611884565b6001606860008373ffffffffffffffffffffffffffffffffffffffff1673ffffffffffffffffffffffffffffffffffffffff168152602001908152602001600020600082825461385291906151e6565b925050819055506067600083815260200190815260200160002060006101000a81549073ffffffffffffffffffffffffffffffffffffffff021916905581600073ffffffffffffffffffffffffffffffffffffffff168273ffffffffffffffffffffffffffffffffffffffff167fddf252ad1be2c89b69c2b068fc378daa952ba7f163c4a11628f55a4df523b3ef60405160405180910390a45050565b600073ffffffffffffffffffffffffffffffffffffffff168273ffffffffffffffffffffffffffffffffffffffff16141561395f576040517f08c379a000000000000000000000000000000000000000000000000000000000815260040161395690614e75565b60405180910390fd5b61396881611810565b156139a8576040517f08c379a000000000000000000000000000000000000000000000000000000000815260040161399f90614cf5565b60405180910390fd5b6139b4600083836129b7565b6001606860008473ffffffffffffffffffffffffffffffffffffffff1673ffffffffffffffffffffffffffffffffffffffff1681526020019081526020016000206000828254613a049190615105565b92505081905550816067600083815260200190815260200160002060006101000a81548173ffffffffffffffffffffffffffffffffffffffff021916908373ffffffffffffffffffffffffffffffffffffffff160217905550808273ffffffffffffffffffffffffffffffffffffffff16600073ffffffffffffffffffffffffffffffffffffffff167fddf252ad1be2c89b69c2b068fc378daa952ba7f163c4a11628f55a4df523b3ef60405160405180910390a45050565b60606000821415613b05576040518060400160405280600181526020017f30000000000000000000000000000000000000000000000000000000000000008152509050613c65565b600082905060005b60008214613b37578080613b2090615367565b915050600a82613b30919061515b565b9150613b0d565b60008167ffffffffffffffff811115613b79577f4e487b7100000000000000000000000000000000000000000000000000000000600052604160045260246000fd5b6040519080825280601f01601f191660200182016040528015613bab5781602001600182028036833780820191505090505b5090505b60008514613c5e57600182613bc491906151e6565b9150600a85613bd391906153b0565b6030613bdf9190615105565b60f81b818381518110613c1b577f4e487b7100000000000000000000000000000000000000000000000000000000600052603260045260246000fd5b60200101907effffffffffffffffffffffffffffffffffffffffffffffffffffffffffffff1916908160001a905350600a85613c57919061515b565b9450613baf565b8093505050505b919050565b60007f01ffc9a7000000000000000000000000000000000000000000000000000000007bffffffffffffffffffffffffffffffffffffffffffffffffffffffff1916827bffffffffffffffffffffffffffffffffffffffffffffffffffffffff1916149050919050565b505050565b609980549050609a600083815260200190815260200160002081905550609981908060018154018082558091505060019003906000526020600020016000909190919091505550565b60006001613d2f8461112a565b613d3991906151e6565b9050600060986000848152602001908152602001600020549050818114613e1e576000609760008673ffffffffffffffffffffffffffffffffffffffff1673ffffffffffffffffffffffffffffffffffffffff168152602001908152602001600020600084815260200190815260200160002054905080609760008773ffffffffffffffffffffffffffffffffffffffff1673ffffffffffffffffffffffffffffffffffffffff168152602001908152602001600020600084815260200190815260200160002081905550816098600083815260200190815260200160002081905550505b6098600084815260200190815260200160002060009055609760008573ffffffffffffffffffffffffffffffffffffffff1673ffffffffffffffffffffffffffffffffffffffff16815260200190815260200160002060008381526020019081526020016000206000905550505050565b60006001609980549050613ea391906151e6565b90506000609a6000848152602001908152602001600020549050600060998381548110613ef9577f4e487b7100000000000000000000000000000000000000000000000000000000600052603260045260246000fd5b906000526020600020015490508060998381548110613f41577f4e487b7100000000000000000000000000000000000000000000000000000000600052603260045260246000fd5b906000526020600020018190555081609a600083815260200190815260200160002081905550609a6000858152602001908152602001600020600090556099805480613fb6577f4e487b7100000000000000000000000000000000000000000000000000000000600052603160045260246000fd5b6001900381819060005260206000200160009055905550505050565b6000613fdd8361112a565b905081609760008573ffffffffffffffffffffffffffffffffffffffff1673ffffffffffffffffffffffffffffffffffffffff168152602001908152602001600020600083815260200190815260200160002081905550806098600084815260200190815260200160002081905550505050565b82805461405d90615304565b90600052602060002090601f01602090048101928261407f57600085556140c6565b82601f1061409857805160ff19168380011785556140c6565b828001600101855582156140c6579182015b828111156140c55782518255916020019190600101906140aa565b5b5090506140d39190614117565b5090565b5080546140e390615304565b6000825580601f106140f55750614114565b601f0160209004906000526020600020908101906141139190614117565b5b50565b5b80821115614130576000816000905550600101614118565b5090565b600061414761414284615055565b615030565b90508281526020810184848401111561415f57600080fd5b61416a848285615298565b509392505050565b600061418561418084615086565b615030565b90508281526020810184848401111561419d57600080fd5b6141a8848285615298565b509392505050565b6000813590506141bf81615d5e565b92915050565b6000813590506141d481615d75565b92915050565b6000813590506141e981615d8c565b92915050565b6000813590506141fe81615da3565b92915050565b60008151905061421381615da3565b92915050565b600082601f83011261422a57600080fd5b813561423a848260208601614134565b91505092915050565b600082601f83011261425457600080fd5b8135614264848260208601614172565b91505092915050565b60008135905061427c81615dba565b92915050565b60006020828403121561429457600080fd5b60006142a2848285016141b0565b91505092915050565b600080604083850312156142be57600080fd5b60006142cc858286016141b0565b92505060206142dd858286016141b0565b9150509250929050565b6000806000606084860312156142fc57600080fd5b600061430a868287016141b0565b935050602061431b868287016141b0565b925050604061432c8682870161426d565b9150509250925092565b6000806000806080858703121561434c57600080fd5b600061435a878288016141b0565b945050602061436b878288016141b0565b935050604061437c8782880161426d565b925050606085013567ffffffffffffffff81111561439957600080fd5b6143a587828801614219565b91505092959194509250565b600080604083850312156143c457600080fd5b60006143d2858286016141b0565b92505060206143e3858286016141c5565b9150509250929050565b6000806040838503121561440057600080fd5b600061440e858286016141b0565b925050602083013567ffffffffffffffff81111561442b57600080fd5b61443785828601614219565b9150509250929050565b6000806040838503121561445457600080fd5b6000614462858286016141b0565b925050602083013567ffffffffffffffff81111561447f57600080fd5b61448b85828601614243565b9150509250929050565b600080604083850312156144a857600080fd5b60006144b6858286016141b0565b92505060206144c78582860161426d565b9150509250929050565b6000602082840312156144e357600080fd5b60006144f1848285016141da565b91505092915050565b6000806040838503121561450d57600080fd5b600061451b858286016141da565b925050602061452c858286016141b0565b9150509250929050565b60006020828403121561454857600080fd5b6000614556848285016141ef565b91505092915050565b60006020828403121561457157600080fd5b600061457f84828501614204565b91505092915050565b60006020828403121561459a57600080fd5b60006145a88482850161426d565b91505092915050565b6145ba8161521a565b82525050565b6145c98161522c565b82525050565b6145d881615238565b82525050565b60006145e9826150b7565b6145f381856150cd565b93506146038185602086016152a7565b61460c8161549d565b840191505092915050565b6000614622826150b7565b61462c81856150de565b935061463c8185602086016152a7565b80840191505092915050565b6000614653826150c2565b61465d81856150e9565b935061466d8185602086016152a7565b6146768161549d565b840191505092915050565b600061468c826150c2565b61469681856150fa565b93506146a68185602086016152a7565b80840191505092915050565b60006146bf6020836150e9565b91506146ca826154ae565b602082019050919050565b60006146e26014836150e9565b91506146ed826154d7565b602082019050919050565b6000614705602b836150e9565b915061471082615500565b604082019050919050565b60006147286032836150e9565b91506147338261554f565b604082019050919050565b600061474b602f836150e9565b91506147568261559e565b604082019050919050565b600061476e601c836150e9565b9150614779826155ed565b602082019050919050565b6000614791602c836150e9565b915061479c82615616565b604082019050919050565b60006147b46024836150e9565b91506147bf82615665565b604082019050919050565b60006147d76019836150e9565b91506147e2826156b4565b602082019050919050565b60006147fa602c836150e9565b9150614805826156dd565b604082019050919050565b600061481d602c836150e9565b91506148288261572c565b604082019050919050565b60006148406010836150e9565b915061484b8261577b565b602082019050919050565b60006148636038836150e9565b915061486e826157a4565b604082019050919050565b6000614886602a836150e9565b9150614891826157f3565b604082019050919050565b60006148a96029836150e9565b91506148b482615842565b604082019050919050565b60006148cc602e836150e9565b91506148d782615891565b604082019050919050565b60006148ef602e836150e9565b91506148fa826158e0565b604082019050919050565b60006149126020836150e9565b915061491d8261592f565b602082019050919050565b60006149356031836150e9565b915061494082615958565b604082019050919050565b6000614958602c836150e9565b9150614963826159a7565b604082019050919050565b600061497b602d836150e9565b9150614986826159f6565b604082019050919050565b600061499e6029836150e9565b91506149a982615a45565b604082019050919050565b60006149c1602f836150e9565b91506149cc82615a94565b604082019050919050565b60006149e46021836150e9565b91506149ef82615ae3565b604082019050919050565b6000614a076026836150e9565b9150614a1282615b32565b604082019050919050565b6000614a2a6031836150e9565b9150614a3582615b81565b604082019050919050565b6000614a4d602c836150e9565b9150614a5882615bd0565b604082019050919050565b6000614a70602b836150e9565b9150614a7b82615c1f565b604082019050919050565b6000614a936017836150fa565b9150614a9e82615c6e565b601782019050919050565b6000614ab66030836150e9565b9150614ac182615c97565b604082019050919050565b6000614ad96011836150fa565b9150614ae482615ce6565b601182019050919050565b6000614afc602f836150e9565b9150614b0782615d0f565b604082019050919050565b614b1b8161528e565b82525050565b6000614b2d8284614617565b915081905092915050565b6000614b448285614681565b9150614b508284614681565b91508190509392505050565b6000614b6782614a86565b9150614b738285614681565b9150614b7e82614acc565b9150614b8a8284614681565b91508190509392505050565b6000602082019050614bab60008301846145b1565b92915050565b6000608082019050614bc660008301876145b1565b614bd360208301866145b1565b614be06040830185614b12565b8181036060830152614bf281846145de565b905095945050505050565b6000602082019050614c1260008301846145c0565b92915050565b6000602082019050614c2d60008301846145cf565b92915050565b60006020820190508181036000830152614c4d8184614648565b905092915050565b60006020820190508181036000830152614c6e816146b2565b9050919050565b60006020820190508181036000830152614c8e816146d5565b9050919050565b60006020820190508181036000830152614cae816146f8565b9050919050565b60006020820190508181036000830152614cce8161471b565b9050919050565b60006020820190508181036000830152614cee8161473e565b9050919050565b60006020820190508181036000830152614d0e81614761565b9050919050565b60006020820190508181036000830152614d2e81614784565b9050919050565b60006020820190508181036000830152614d4e816147a7565b9050919050565b60006020820190508181036000830152614d6e816147ca565b9050919050565b60006020820190508181036000830152614d8e816147ed565b9050919050565b60006020820190508181036000830152614dae81614810565b9050919050565b60006020820190508181036000830152614dce81614833565b9050919050565b60006020820190508181036000830152614dee81614856565b9050919050565b60006020820190508181036000830152614e0e81614879565b9050919050565b60006020820190508181036000830152614e2e8161489c565b9050919050565b60006020820190508181036000830152614e4e816148bf565b9050919050565b60006020820190508181036000830152614e6e816148e2565b9050919050565b60006020820190508181036000830152614e8e81614905565b9050919050565b60006020820190508181036000830152614eae81614928565b9050919050565b60006020820190508181036000830152614ece8161494b565b9050919050565b60006020820190508181036000830152614eee8161496e565b9050919050565b60006020820190508181036000830152614f0e81614991565b9050919050565b60006020820190508181036000830152614f2e816149b4565b9050919050565b60006020820190508181036000830152614f4e816149d7565b9050919050565b60006020820190508181036000830152614f6e816149fa565b9050919050565b60006020820190508181036000830152614f8e81614a1d565b9050919050565b60006020820190508181036000830152614fae81614a40565b9050919050565b60006020820190508181036000830152614fce81614a63565b9050919050565b60006020820190508181036000830152614fee81614aa9565b9050919050565b6000602082019050818103600083015261500e81614aef565b9050919050565b600060208201905061502a6000830184614b12565b92915050565b600061503a61504b565b90506150468282615336565b919050565b6000604051905090565b600067ffffffffffffffff8211156150705761506f61546e565b5b6150798261549d565b9050602081019050919050565b600067ffffffffffffffff8211156150a1576150a061546e565b5b6150aa8261549d565b9050602081019050919050565b600081519050919050565b600081519050919050565b600082825260208201905092915050565b600081905092915050565b600082825260208201905092915050565b600081905092915050565b60006151108261528e565b915061511b8361528e565b9250827fffffffffffffffffffffffffffffffffffffffffffffffffffffffffffffffff038211156151505761514f6153e1565b5b828201905092915050565b60006151668261528e565b91506151718361528e565b92508261518157615180615410565b5b828204905092915050565b60006151978261528e565b91506151a28361528e565b9250817fffffffffffffffffffffffffffffffffffffffffffffffffffffffffffffffff04831182151516156151db576151da6153e1565b5b828202905092915050565b60006151f18261528e565b91506151fc8361528e565b92508282101561520f5761520e6153e1565b5b828203905092915050565b60006152258261526e565b9050919050565b60008115159050919050565b6000819050919050565b60007fffffffff0000000000000000000000000000000000000000000000000000000082169050919050565b600073ffffffffffffffffffffffffffffffffffffffff82169050919050565b6000819050919050565b82818337600083830152505050565b60005b838110156152c55780820151818401526020810190506152aa565b838111156152d4576000848401525b50505050565b60006152e58261528e565b915060008214156152f9576152f86153e1565b5b600182039050919050565b6000600282049050600182168061531c57607f821691505b602082108114156153305761532f61543f565b5b50919050565b61533f8261549d565b810181811067ffffffffffffffff8211171561535e5761535d61546e565b5b80604052505050565b60006153728261528e565b91507fffffffffffffffffffffffffffffffffffffffffffffffffffffffffffffffff8214156153a5576153a46153e1565b5b600182019050919050565b60006153bb8261528e565b91506153c68361528e565b9250826153d6576153d5615410565b5b828206905092915050565b7f4e487b7100000000000000000000000000000000000000000000000000000000600052601160045260246000fd5b7f4e487b7100000000000000000000000000000000000000000000000000000000600052601260045260246000fd5b7f4e487b7100000000000000000000000000000000000000000000000000000000600052602260045260246000fd5b7f4e487b7100000000000000000000000000000000000000000000000000000000600052604160045260246000fd5b6000601f19601f8301169050919050565b7f537472696e67733a20686578206c656e67746820696e73756666696369656e74600082015250565b7f5061757361626c653a206e6f7420706175736564000000000000000000000000600082015250565b7f455243373231456e756d657261626c653a206f776e657220696e646578206f7560008201527f74206f6620626f756e6473000000000000000000000000000000000000000000602082015250565b7f4552433732313a207472616e7366657220746f206e6f6e20455243373231526560008201527f63656976657220696d706c656d656e7465720000000000000000000000000000602082015250565b7f45524331393637557067726164653a207570677261646520627265616b73206660008201527f7572746865722075706772616465730000000000000000000000000000000000602082015250565b7f4552433732313a20746f6b656e20616c7265616479206d696e74656400000000600082015250565b7f46756e6374696f6e206d7573742062652063616c6c6564207468726f7567682060008201527f64656c656761746563616c6c0000000000000000000000000000000000000000602082015250565b7f4552433732313a207472616e7366657220746f20746865207a65726f2061646460008201527f7265737300000000000000000000000000000000000000000000000000000000602082015250565b7f4552433732313a20617070726f766520746f2063616c6c657200000000000000600082015250565b7f46756e6374696f6e206d7573742062652063616c6c6564207468726f7567682060008201527f6163746976652070726f78790000000000000000000000000000000000000000602082015250565b7f4552433732313a206f70657261746f7220717565727920666f72206e6f6e657860008201527f697374656e7420746f6b656e0000000000000000000000000000000000000000602082015250565b7f5061757361626c653a2070617573656400000000000000000000000000000000600082015250565b7f4552433732313a20617070726f76652063616c6c6572206973206e6f74206f7760008201527f6e6572206e6f7220617070726f76656420666f7220616c6c0000000000000000602082015250565b7f4552433732313a2062616c616e636520717565727920666f7220746865207a6560008201527f726f206164647265737300000000000000000000000000000000000000000000602082015250565b7f4552433732313a206f776e657220717565727920666f72206e6f6e657869737460008201527f656e7420746f6b656e0000000000000000000000000000000000000000000000602082015250565b7f45524337323155524953746f726167653a2055524920736574206f66206e6f6e60008201527f6578697374656e7420746f6b656e000000000000000000000000000000000000602082015250565b7f496e697469616c697a61626c653a20636f6e747261637420697320616c72656160008201527f647920696e697469616c697a6564000000000000000000000000000000000000602082015250565b7f4552433732313a206d696e7420746f20746865207a65726f2061646472657373600082015250565b7f45524337323155524953746f726167653a2055524920717565727920666f722060008201527f6e6f6e6578697374656e7420746f6b656e000000000000000000000000000000602082015250565b7f4552433732313a20617070726f76656420717565727920666f72206e6f6e657860008201527f697374656e7420746f6b656e0000000000000000000000000000000000000000602082015250565b7f455243313936373a206e657720696d706c656d656e746174696f6e206973206e60008201527f6f74206120636f6e747261637400000000000000000000000000000000000000602082015250565b7f4552433732313a207472616e73666572206f6620746f6b656e2074686174206960008201527f73206e6f74206f776e0000000000000000000000000000000000000000000000602082015250565b7f4552433732314d657461646174613a2055524920717565727920666f72206e6f60008201527f6e6578697374656e7420746f6b656e0000000000000000000000000000000000602082015250565b7f4552433732313a20617070726f76616c20746f2063757272656e74206f776e6560008201527f7200000000000000000000000000000000000000000000000000000000000000602082015250565b7f416464726573733a2064656c65676174652063616c6c20746f206e6f6e2d636f60008201527f6e74726163740000000000000000000000000000000000000000000000000000602082015250565b7f4552433732313a207472616e736665722063616c6c6572206973206e6f74206f60008201527f776e6572206e6f7220617070726f766564000000000000000000000000000000602082015250565b7f455243373231456e756d657261626c653a20676c6f62616c20696e646578206f60008201527f7574206f6620626f756e64730000000000000000000000000000000000000000602082015250565b7f496e697469616c697a61626c653a20636f6e7472616374206973206e6f74206960008201527f6e697469616c697a696e67000000000000000000000000000000000000000000602082015250565b7f416363657373436f6e74726f6c3a206163636f756e7420000000000000000000600082015250565b7f4552433732314275726e61626c653a2063616c6c6572206973206e6f74206f7760008201527f6e6572206e6f7220617070726f76656400000000000000000000000000000000602082015250565b7f206973206d697373696e6720726f6c6520000000000000000000000000000000600082015250565b7f416363657373436f6e74726f6c3a2063616e206f6e6c792072656e6f756e636560008201527f20726f6c657320666f722073656c660000000000000000000000000000000000602082015250565b615d678161521a565b8114615d7257600080fd5b50565b615d7e8161522c565b8114615d8957600080fd5b50565b615d9581615238565b8114615da057600080fd5b50565b615dac81615242565b8114615db757600080fd5b50565b615dc38161528e565b8114615dce57600080fd5b5056fe416464726573733a206c6f772d6c6576656c2064656c65676174652063616c6c206661696c6564a26469706673582212200f68811c850046e933399e82819bf4868558e38406c7e4e946a10f43d44c7df164736f6c63430008020033",
  "linkReferences": {},
  "deployedLinkReferences": {}
}